{
  "_format": "hh-sol-artifact-1",
  "contractName": "OrderingContract",
  "sourceName": "contracts/OrderingContract.sol",
  "abi": [
    {
      "inputs": [
        {
          "internalType": "address",
          "name": "processContractAddress",
          "type": "address"
        }
      ],
      "stateMutability": "nonpayable",
      "type": "constructor"
    },
    {
      "anonymous": false,
      "inputs": [
        {
          "indexed": true,
          "internalType": "int32",
          "name": "domain",
          "type": "int32"
        },
        {
          "indexed": false,
          "internalType": "uint256[2]",
          "name": "transactions",
          "type": "uint256[2]"
        }
      ],
      "name": "Conflict",
      "type": "event"
    },
    {
      "inputs": [],
      "name": "block_interval",
      "outputs": [
        {
          "internalType": "uint256",
          "name": "",
          "type": "uint256"
        }
      ],
      "stateMutability": "view",
      "type": "function"
    },
    {
      "inputs": [
        {
          "internalType": "uint256",
          "name": "",
          "type": "uint256"
        }
      ],
      "name": "conflicting_domains",
      "outputs": [
        {
          "internalType": "int32",
          "name": "",
          "type": "int32"
        }
      ],
      "stateMutability": "view",
      "type": "function"
    },
    {
      "inputs": [],
      "name": "domain_count",
      "outputs": [
        {
          "internalType": "int32",
          "name": "",
          "type": "int32"
        }
      ],
      "stateMutability": "view",
      "type": "function"
    },
    {
      "inputs": [],
      "name": "index_block",
      "outputs": [
        {
          "internalType": "uint256",
          "name": "",
          "type": "uint256"
        }
      ],
      "stateMutability": "view",
      "type": "function"
    },
    {
      "inputs": [
        {
          "internalType": "uint256[]",
          "name": "indicesToReorder",
          "type": "uint256[]"
        }
      ],
      "name": "orderInteraction",
      "outputs": [],
      "stateMutability": "nonpayable",
      "type": "function"
    },
    {
      "inputs": [
        {
          "internalType": "uint256",
          "name": "",
          "type": "uint256"
        }
      ],
      "name": "ordered_interactions",
      "outputs": [
        {
          "internalType": "uint256",
          "name": "",
          "type": "uint256"
        }
      ],
      "stateMutability": "view",
      "type": "function"
    },
    {
      "inputs": [
        {
          "internalType": "uint256",
          "name": "",
          "type": "uint256"
        }
      ],
      "name": "orderers",
      "outputs": [
        {
          "internalType": "address",
          "name": "",
          "type": "address"
        }
      ],
      "stateMutability": "view",
      "type": "function"
    },
    {
      "inputs": [],
      "name": "orderers_count",
      "outputs": [
        {
          "internalType": "uint256",
          "name": "",
          "type": "uint256"
        }
      ],
      "stateMutability": "view",
      "type": "function"
    },
    {
      "inputs": [
        {
          "internalType": "uint256",
          "name": "",
          "type": "uint256"
        }
      ],
      "name": "pending_interactions",
      "outputs": [
        {
          "internalType": "uint256",
          "name": "instance",
          "type": "uint256"
        },
        {
          "internalType": "address",
          "name": "sender",
          "type": "address"
        },
        {
          "internalType": "address",
          "name": "receiver",
          "type": "address"
        },
        {
          "internalType": "string",
          "name": "task",
          "type": "string"
        },
        {
          "internalType": "uint256",
          "name": "id",
          "type": "uint256"
        },
        {
          "internalType": "uint256",
          "name": "block_number",
          "type": "uint256"
        },
        {
          "internalType": "int32",
          "name": "domain",
          "type": "int32"
        }
      ],
      "stateMutability": "view",
      "type": "function"
    },
    {
      "inputs": [],
      "name": "pending_interactions_count",
      "outputs": [
        {
          "internalType": "uint256",
          "name": "",
          "type": "uint256"
        }
      ],
      "stateMutability": "view",
      "type": "function"
    },
    {
      "inputs": [],
      "name": "process",
      "outputs": [
        {
          "internalType": "contract IProcessContract",
          "name": "",
          "type": "address"
        }
      ],
      "stateMutability": "view",
      "type": "function"
    },
    {
      "inputs": [],
      "name": "release",
      "outputs": [],
      "stateMutability": "nonpayable",
      "type": "function"
    },
    {
      "inputs": [
        {
          "internalType": "uint256",
          "name": "instance",
          "type": "uint256"
        },
        {
          "internalType": "string",
          "name": "task",
          "type": "string"
        }
      ],
      "name": "submitInteraction",
      "outputs": [],
      "stateMutability": "nonpayable",
      "type": "function"
    },
    {
      "inputs": [],
      "name": "vote_count",
      "outputs": [
        {
          "internalType": "uint256",
          "name": "",
          "type": "uint256"
        }
      ],
      "stateMutability": "view",
      "type": "function"
    },
    {
      "inputs": [],
      "name": "workflow_address",
      "outputs": [
        {
          "internalType": "address",
          "name": "",
          "type": "address"
        }
      ],
      "stateMutability": "view",
      "type": "function"
    }
  ],
  "bytecode": "0x608060405260056002556000600355600060055560006008556000600960006101000a81548163ffffffff021916908360030b63ffffffff1602179055506000600b5534801561004e57600080fd5b50604051612e1f380380612e1f83398181016040528101906100709190610188565b600073ffffffffffffffffffffffffffffffffffffffff168173ffffffffffffffffffffffffffffffffffffffff16036100df576040517f08c379a00000000000000000000000000000000000000000000000000000000081526004016100d690610212565b60405180910390fd5b806000806101000a81548173ffffffffffffffffffffffffffffffffffffffff021916908373ffffffffffffffffffffffffffffffffffffffff16021790555050610232565b600080fd5b600073ffffffffffffffffffffffffffffffffffffffff82169050919050565b60006101558261012a565b9050919050565b6101658161014a565b811461017057600080fd5b50565b6000815190506101828161015c565b92915050565b60006020828403121561019e5761019d610125565b5b60006101ac84828501610173565b91505092915050565b600082825260208201905092915050565b7f496e76616c696420616464726573730000000000000000000000000000000000600082015250565b60006101fc600f836101b5565b9150610207826101c6565b602082019050919050565b6000602082019050818103600083015261022b816101ef565b9050919050565b612bde806102416000396000f3fe608060405234801561001057600080fd5b50600436106100f55760003560e01c8063b49ab3be11610097578063e655e89d11610066578063e655e89d1461026a578063eb86219814610288578063f4303694146102b8578063fcd70e05146102d6576100f5565b8063b49ab3be146101f2578063ba1810e414610210578063c33fb8771461022e578063d981ead61461024c576100f5565b80633e63a5fc116100d35780633e63a5fc1461016657806356e961af146101965780636440aee6146101b257806386d1a69f146101e8576100f5565b8063220c5669146100fa578063296973dc146101185780632fb05d4b14610136575b600080fd5b6101026102f2565b60405161010f9190611e2d565b60405180910390f35b6101206102f8565b60405161012d9190611e64565b60405180910390f35b610150600480360381019061014b9190611ebf565b61030b565b60405161015d9190611f2d565b60405180910390f35b610180600480360381019061017b9190611ebf565b61034a565b60405161018d9190611e2d565b60405180910390f35b6101b060048036038101906101ab9190611fad565b61036e565b005b6101cc60048036038101906101c79190611ebf565b610b58565b6040516101df979695949392919061208a565b60405180910390f35b6101f0610c7f565b005b6101fa610d21565b6040516102079190611e2d565b60405180910390f35b610218610d27565b6040516102259190611f2d565b60405180910390f35b610236610d4d565b604051610243919061215f565b60405180910390f35b610254610d71565b6040516102619190611e2d565b60405180910390f35b610272610d77565b60405161027f9190611e2d565b60405180910390f35b6102a2600480360381019061029d9190611ebf565b610d7d565b6040516102af9190611e64565b60405180910390f35b6102c0610db4565b6040516102cd9190611e2d565b60405180910390f35b6102f060048036038101906102eb91906122aa565b610dba565b005b60085481565b600960009054906101000a900460030b81565b6007818154811061031b57600080fd5b906000526020600020016000915054906101000a900473ffffffffffffffffffffffffffffffffffffffff1681565b6006818154811061035a57600080fd5b906000526020600020016000915090505481565b600060035414158015610390575060025460035461038c9190612335565b4310155b6103cf576040517f08c379a00000000000000000000000000000000000000000000000000000000081526004016103c6906123b5565b60405180910390fd5b60018282905011610415576040517f08c379a000000000000000000000000000000000000000000000000000000000815260040161040c90612447565b60405180910390fd5b6000600960009054906101000a900460030b60030b036104385761043761107e565b5b600b600081548092919061044b90612467565b9190505550600060048054905067ffffffffffffffff8111156104715761047061217f565b5b60405190808252806020026020018201604052801561049f5781602001602082028036833780820191505090505b50905060005b838390508110156105a55760008484838181106104c5576104c46124af565b5b9050602002013590506004805490508110610515576040517f08c379a000000000000000000000000000000000000000000000000000000000815260040161050c9061252a565b60405180910390fd5b828181518110610528576105276124af565b5b602002602001015115610570576040517f08c379a0000000000000000000000000000000000000000000000000000000008152600401610567906125bc565b60405180910390fd5b6001838281518110610585576105846124af565b5b6020026020010190151590811515815250505080806001019150506104a5565b5060008060005b85859050811015610b3c5760008686838181106105cc576105cb6124af565b5b905060200201359050610610600482815481106105ec576105eb6124af565b5b906000526020600020906007020160060160009054906101000a900460030b6116e8565b15610650576040517f08c379a00000000000000000000000000000000000000000000000000000000081526004016106479061264e565b60405180910390fd5b6000805b60068054905081101561069f578260068281548110610676576106756124af565b5b906000526020600020015403610692576001915080945061069f565b8080600101915050610654565b508015610b03578484106106b557839450610afe565b60006004600687815481106106cd576106cc6124af565b5b9060005260206000200154815481106106e9576106e86124af565b5b90600052602060002090600702016040518060e0016040529081600082015481526020016001820160009054906101000a900473ffffffffffffffffffffffffffffffffffffffff1673ffffffffffffffffffffffffffffffffffffffff1673ffffffffffffffffffffffffffffffffffffffff1681526020016002820160009054906101000a900473ffffffffffffffffffffffffffffffffffffffff1673ffffffffffffffffffffffffffffffffffffffff1673ffffffffffffffffffffffffffffffffffffffff1681526020016003820180546107c89061269d565b80601f01602080910402602001604051908101604052809291908181526020018280546107f49061269d565b80156108415780601f1061081657610100808354040283529160200191610841565b820191906000526020600020905b81548152906001019060200180831161082457829003601f168201915b5050505050815260200160048201548152602001600582015481526020016006820160009054906101000a900460030b60030b60030b8152505090506000600460068781548110610895576108946124af565b5b9060005260206000200154815481106108b1576108b06124af565b5b90600052602060002090600702016040518060e0016040529081600082015481526020016001820160009054906101000a900473ffffffffffffffffffffffffffffffffffffffff1673ffffffffffffffffffffffffffffffffffffffff1673ffffffffffffffffffffffffffffffffffffffff1681526020016002820160009054906101000a900473ffffffffffffffffffffffffffffffffffffffff1673ffffffffffffffffffffffffffffffffffffffff1673ffffffffffffffffffffffffffffffffffffffff1681526020016003820180546109909061269d565b80601f01602080910402602001604051908101604052809291908181526020018280546109bc9061269d565b8015610a095780601f106109de57610100808354040283529160200191610a09565b820191906000526020600020905b8154815290600101906020018083116109ec57829003601f168201915b5050505050815260200160048201548152602001600582015481526020016006820160009054906101000a900460030b60030b60030b815250509050600a8260c0015190806001815401808255809150506001900390600052602060002090600891828204019190066004029091909190916101000a81548163ffffffff021916908360030b63ffffffff1602179055508160c0015160030b7fbad0d37b83f882ec94894ad9b6079de94febdd16145669ffe6e655917a57f9b26040518060400160405280856080015181526020018460800151815250604051610aed9190612779565b60405180910390a250505050610b3c565b610b2d565b60068290806001815401808255809150506001900390600052602060002001600090919091909150555b505080806001019150506105ac565b50600854600b5403610b5157610b50611762565b5b5050505050565b60048181548110610b6857600080fd5b90600052602060002090600702016000915090508060000154908060010160009054906101000a900473ffffffffffffffffffffffffffffffffffffffff16908060020160009054906101000a900473ffffffffffffffffffffffffffffffffffffffff1690806003018054610bdd9061269d565b80601f0160208091040260200160405190810160405280929190818152602001828054610c099061269d565b8015610c565780601f10610c2b57610100808354040283529160200191610c56565b820191906000526020600020905b815481529060010190602001808311610c3957829003601f168201915b5050505050908060040154908060050154908060060160009054906101000a900460030b905087565b600060035414158015610ca15750600254600354610c9d9190612335565b4310155b8015610caf57506000600854145b15610ce4576000600960009054906101000a900460030b60030b03610cd757610cd661107e565b5b610cdf611762565b610d1f565b6040517f08c379a0000000000000000000000000000000000000000000000000000000008152600401610d16906127e0565b60405180910390fd5b565b60025481565b600160009054906101000a900473ffffffffffffffffffffffffffffffffffffffff1681565b60008054906101000a900473ffffffffffffffffffffffffffffffffffffffff1681565b60055481565b600b5481565b600a8181548110610d8d57600080fd5b9060005260206000209060089182820401919006600402915054906101000a900460030b81565b60035481565b600060035403610dcc57436003819055505b600254600354610ddc9190612335565b4310610e1d576040517f08c379a0000000000000000000000000000000000000000000000000000000008152600401610e149061284c565b60405180910390fd5b60008060008054906101000a900473ffffffffffffffffffffffffffffffffffffffff1673ffffffffffffffffffffffffffffffffffffffff1663cb61b29a85856040518363ffffffff1660e01b8152600401610e7b92919061286c565b6040805180830381865afa158015610e97573d6000803e3d6000fd5b505050506040513d601f19601f82011682018060405250810190610ebb91906128c8565b9150915060046040518060e001604052808681526020018473ffffffffffffffffffffffffffffffffffffffff1681526020018373ffffffffffffffffffffffffffffffffffffffff16815260200185815260200160056000815480929190610f2390612467565b9190505581526020014381526020017fffffffffffffffffffffffffffffffffffffffffffffffffffffffffffffffff60030b81525090806001815401808255809150506001900390600052602060002090600702016000909190919091506000820151816000015560208201518160010160006101000a81548173ffffffffffffffffffffffffffffffffffffffff021916908373ffffffffffffffffffffffffffffffffffffffff16021790555060408201518160020160006101000a81548173ffffffffffffffffffffffffffffffffffffffff021916908373ffffffffffffffffffffffffffffffffffffffff160217905550606082015181600301908161102f9190612aaa565b506080820151816004015560a0820151816005015560c08201518160060160006101000a81548163ffffffff021916908360030b63ffffffff160217905550505061107861178a565b50505050565b60005b6004805490508110156116e5576000600482815481106110a4576110a36124af565b5b906000526020600020906007020160060160009054906101000a900460030b90507fffffffffffffffffffffffffffffffffffffffffffffffffffffffffffffffff8160030b03611179576009600081819054906101000a900460030b8092919061110e90612b7c565b91906101000a81548163ffffffff021916908360030b63ffffffff16021790555090508060048381548110611146576111456124af565b5b906000526020600020906007020160060160006101000a81548163ffffffff021916908360030b63ffffffff1602179055505b6000805b60048054905081101561163f57808414611632576000600485815481106111a7576111a66124af565b5b90600052602060002090600702016040518060e0016040529081600082015481526020016001820160009054906101000a900473ffffffffffffffffffffffffffffffffffffffff1673ffffffffffffffffffffffffffffffffffffffff1673ffffffffffffffffffffffffffffffffffffffff1681526020016002820160009054906101000a900473ffffffffffffffffffffffffffffffffffffffff1673ffffffffffffffffffffffffffffffffffffffff1673ffffffffffffffffffffffffffffffffffffffff1681526020016003820180546112869061269d565b80601f01602080910402602001604051908101604052809291908181526020018280546112b29061269d565b80156112ff5780601f106112d4576101008083540402835291602001916112ff565b820191906000526020600020905b8154815290600101906020018083116112e257829003601f168201915b5050505050815260200160048201548152602001600582015481526020016006820160009054906101000a900460030b60030b60030b815250509050600060048381548110611351576113506124af565b5b90600052602060002090600702016040518060e0016040529081600082015481526020016001820160009054906101000a900473ffffffffffffffffffffffffffffffffffffffff1673ffffffffffffffffffffffffffffffffffffffff1673ffffffffffffffffffffffffffffffffffffffff1681526020016002820160009054906101000a900473ffffffffffffffffffffffffffffffffffffffff1673ffffffffffffffffffffffffffffffffffffffff1673ffffffffffffffffffffffffffffffffffffffff1681526020016003820180546114309061269d565b80601f016020809104026020016040519081016040528092919081815260200182805461145c9061269d565b80156114a95780601f1061147e576101008083540402835291602001916114a9565b820191906000526020600020905b81548152906001019060200180831161148c57829003601f168201915b5050505050815260200160048201548152602001600582015481526020016006820160009054906101000a900460030b60030b60030b8152505090506000826020015190506000836040015190506000836020015190506000846040015190508173ffffffffffffffffffffffffffffffffffffffff168473ffffffffffffffffffffffffffffffffffffffff16148061156e57508073ffffffffffffffffffffffffffffffffffffffff168473ffffffffffffffffffffffffffffffffffffffff16145b806115a457508173ffffffffffffffffffffffffffffffffffffffff168373ffffffffffffffffffffffffffffffffffffffff16145b806115da57508073ffffffffffffffffffffffffffffffffffffffff168373ffffffffffffffffffffffffffffffffffffffff16145b1561162b5788600488815481106115f4576115f36124af565b5b906000526020600020906007020160060160006101000a81548163ffffffff021916908360030b63ffffffff160217905550600197505b5050505050505b808060010191505061117d565b50806116d6577fffffffffffffffffffffffffffffffffffffffffffffffffffffffffffffffff6004848154811061167a576116796124af565b5b906000526020600020906007020160060160006101000a81548163ffffffff021916908360030b63ffffffff16021790555060068390806001815401808255809150506001900390600052602060002001600090919091909150555b50508080600101915050611081565b50565b600080600090505b600a80549050811015611757578260030b600a8281548110611715576117146124af565b5b90600052602060002090600891828204019190066004029054906101000a900460030b60030b0361174a57600191505061175d565b80806001019150506116f0565b50600090505b919050565b60005b60068054905081101561177f578080600101915050611765565b50611788611794565b565b6117926117fd565b565b600760006117a29190611cad565b600460006117b09190611cce565b600660006117be9190611cf2565b6000600960006101000a81548163ffffffff021916908360030b63ffffffff16021790555060006008819055506000600b819055506000600381905550565b60005b600480549050811015611c0257600060048281548110611823576118226124af565b5b906000526020600020906007020160010160009054906101000a900473ffffffffffffffffffffffffffffffffffffffff16905060006004838154811061186d5761186c6124af565b5b906000526020600020906007020160020160009054906101000a900473ffffffffffffffffffffffffffffffffffffffff16905060005b600480549050811015611a495780840315611a3c57600481815481106118cd576118cc6124af565b5b906000526020600020906007020160010160009054906101000a900473ffffffffffffffffffffffffffffffffffffffff1673ffffffffffffffffffffffffffffffffffffffff168373ffffffffffffffffffffffffffffffffffffffff1614806119a8575060048181548110611947576119466124af565b5b906000526020600020906007020160020160009054906101000a900473ffffffffffffffffffffffffffffffffffffffff1673ffffffffffffffffffffffffffffffffffffffff168373ffffffffffffffffffffffffffffffffffffffff16145b15611a3b576119b683611c05565b611a36576007839080600181540180825580915050600190039060005260206000200160009091909190916101000a81548173ffffffffffffffffffffffffffffffffffffffff021916908373ffffffffffffffffffffffffffffffffffffffff16021790555060086000815480929190611a3090612467565b91905055505b611a49565b5b80806001019150506118a4565b5060005b600480549050811015611bf25780840315611be55760048181548110611a7657611a756124af565b5b906000526020600020906007020160010160009054906101000a900473ffffffffffffffffffffffffffffffffffffffff1673ffffffffffffffffffffffffffffffffffffffff168273ffffffffffffffffffffffffffffffffffffffff161480611b51575060048181548110611af057611aef6124af565b5b906000526020600020906007020160020160009054906101000a900473ffffffffffffffffffffffffffffffffffffffff1673ffffffffffffffffffffffffffffffffffffffff168273ffffffffffffffffffffffffffffffffffffffff16145b15611be457611b5f82611c05565b611bdf576007829080600181540180825580915050600190039060005260206000200160009091909190916101000a81548173ffffffffffffffffffffffffffffffffffffffff021916908373ffffffffffffffffffffffffffffffffffffffff16021790555060086000815480929190611bd990612467565b91905055505b611bf2565b5b8080600101915050611a4d565b5050508080600101915050611800565b50565b600080600090505b600780549050811015611ca2578273ffffffffffffffffffffffffffffffffffffffff1660078281548110611c4557611c446124af565b5b9060005260206000200160009054906101000a900473ffffffffffffffffffffffffffffffffffffffff1673ffffffffffffffffffffffffffffffffffffffff1603611c95576001915050611ca8565b8080600101915050611c0d565b50600090505b919050565b5080546000825590600052602060002090810190611ccb9190611d13565b50565b5080546000825560070290600052602060002090810190611cef9190611d30565b50565b5080546000825590600052602060002090810190611d109190611d13565b50565b5b80821115611d2c576000816000905550600101611d14565b5090565b5b80821115611dd0576000808201600090556001820160006101000a81549073ffffffffffffffffffffffffffffffffffffffff02191690556002820160006101000a81549073ffffffffffffffffffffffffffffffffffffffff0219169055600382016000611da09190611dd4565b600482016000905560058201600090556006820160006101000a81549063ffffffff021916905550600701611d31565b5090565b508054611de09061269d565b6000825580601f10611df25750611e11565b601f016020900490600052602060002090810190611e109190611d13565b5b50565b6000819050919050565b611e2781611e14565b82525050565b6000602082019050611e426000830184611e1e565b92915050565b60008160030b9050919050565b611e5e81611e48565b82525050565b6000602082019050611e796000830184611e55565b92915050565b6000604051905090565b600080fd5b600080fd5b611e9c81611e14565b8114611ea757600080fd5b50565b600081359050611eb981611e93565b92915050565b600060208284031215611ed557611ed4611e89565b5b6000611ee384828501611eaa565b91505092915050565b600073ffffffffffffffffffffffffffffffffffffffff82169050919050565b6000611f1782611eec565b9050919050565b611f2781611f0c565b82525050565b6000602082019050611f426000830184611f1e565b92915050565b600080fd5b600080fd5b600080fd5b60008083601f840112611f6d57611f6c611f48565b5b8235905067ffffffffffffffff811115611f8a57611f89611f4d565b5b602083019150836020820283011115611fa657611fa5611f52565b5b9250929050565b60008060208385031215611fc457611fc3611e89565b5b600083013567ffffffffffffffff811115611fe257611fe1611e8e565b5b611fee85828601611f57565b92509250509250929050565b600081519050919050565b600082825260208201905092915050565b60005b83811015612034578082015181840152602081019050612019565b60008484015250505050565b6000601f19601f8301169050919050565b600061205c82611ffa565b6120668185612005565b9350612076818560208601612016565b61207f81612040565b840191505092915050565b600060e08201905061209f600083018a611e1e565b6120ac6020830189611f1e565b6120b96040830188611f1e565b81810360608301526120cb8187612051565b90506120da6080830186611e1e565b6120e760a0830185611e1e565b6120f460c0830184611e55565b98975050505050505050565b6000819050919050565b600061212561212061211b84611eec565b612100565b611eec565b9050919050565b60006121378261210a565b9050919050565b60006121498261212c565b9050919050565b6121598161213e565b82525050565b60006020820190506121746000830184612150565b92915050565b600080fd5b7f4e487b7100000000000000000000000000000000000000000000000000000000600052604160045260246000fd5b6121b782612040565b810181811067ffffffffffffffff821117156121d6576121d561217f565b5b80604052505050565b60006121e9611e7f565b90506121f582826121ae565b919050565b600067ffffffffffffffff8211156122155761221461217f565b5b61221e82612040565b9050602081019050919050565b82818337600083830152505050565b600061224d612248846121fa565b6121df565b9050828152602081018484840111156122695761226861217a565b5b61227484828561222b565b509392505050565b600082601f83011261229157612290611f48565b5b81356122a184826020860161223a565b91505092915050565b600080604083850312156122c1576122c0611e89565b5b60006122cf85828601611eaa565b925050602083013567ffffffffffffffff8111156122f0576122ef611e8e565b5b6122fc8582860161227c565b9150509250929050565b7f4e487b7100000000000000000000000000000000000000000000000000000000600052601160045260246000fd5b600061234082611e14565b915061234b83611e14565b925082820190508082111561236357612362612306565b5b92915050565b7f43616e277420766f7465206e6f772e0000000000000000000000000000000000600082015250565b600061239f600f83612005565b91506123aa82612369565b602082019050919050565b600060208201905081810360008301526123ce81612392565b9050919050565b7f4e656564206174206c656173742074776f20696e646963657320746f2072656f60008201527f7264657200000000000000000000000000000000000000000000000000000000602082015250565b6000612431602483612005565b915061243c826123d5565b604082019050919050565b6000602082019050818103600083015261246081612424565b9050919050565b600061247282611e14565b91507fffffffffffffffffffffffffffffffffffffffffffffffffffffffffffffffff82036124a4576124a3612306565b5b600182019050919050565b7f4e487b7100000000000000000000000000000000000000000000000000000000600052603260045260246000fd5b7f496e76616c696420696e746572616374696f6e20494400000000000000000000600082015250565b6000612514601683612005565b915061251f826124de565b602082019050919050565b6000602082019050818103600083015261254381612507565b9050919050565b7f4475706c696361746520696e746572616374696f6e20494420696e207468652060008201527f6f72646572000000000000000000000000000000000000000000000000000000602082015250565b60006125a6602583612005565b91506125b18261254a565b604082019050919050565b600060208201905081810360008301526125d581612599565b9050919050565b7f496e746572616374696f6e20697320696e206120636f6e666c696374696e672060008201527f646f6d61696e2e00000000000000000000000000000000000000000000000000602082015250565b6000612638602783612005565b9150612643826125dc565b604082019050919050565b600060208201905081810360008301526126678161262b565b9050919050565b7f4e487b7100000000000000000000000000000000000000000000000000000000600052602260045260246000fd5b600060028204905060018216806126b557607f821691505b6020821081036126c8576126c761266e565b5b50919050565b600060029050919050565b600081905092915050565b6000819050919050565b6126f781611e14565b82525050565b600061270983836126ee565b60208301905092915050565b6000602082019050919050565b61272b816126ce565b61273581846126d9565b9250612740826126e4565b8060005b8381101561277157815161275887826126fd565b965061276383612715565b925050600181019050612744565b505050505050565b600060408201905061278e6000830184612722565b92915050565b7f43616e6e6f742052656c65617365000000000000000000000000000000000000600082015250565b60006127ca600e83612005565b91506127d582612794565b602082019050919050565b600060208201905081810360008301526127f9816127bd565b9050919050565b7f5472616e73616374696f6e73206c697374206973206c6f636b65642e00000000600082015250565b6000612836601c83612005565b915061284182612800565b602082019050919050565b6000602082019050818103600083015261286581612829565b9050919050565b60006040820190506128816000830185611e1e565b81810360208301526128938184612051565b90509392505050565b6128a581611f0c565b81146128b057600080fd5b50565b6000815190506128c28161289c565b92915050565b600080604083850312156128df576128de611e89565b5b60006128ed858286016128b3565b92505060206128fe858286016128b3565b9150509250929050565b60008190508160005260206000209050919050565b60006020601f8301049050919050565b600082821b905092915050565b60006008830261296a7fffffffffffffffffffffffffffffffffffffffffffffffffffffffffffffffff8261292d565b612974868361292d565b95508019841693508086168417925050509392505050565b60006129a76129a261299d84611e14565b612100565b611e14565b9050919050565b6000819050919050565b6129c18361298c565b6129d56129cd826129ae565b84845461293a565b825550505050565b600090565b6129ea6129dd565b6129f58184846129b8565b505050565b5b81811015612a1957612a0e6000826129e2565b6001810190506129fb565b5050565b601f821115612a5e57612a2f81612908565b612a388461291d565b81016020851015612a47578190505b612a5b612a538561291d565b8301826129fa565b50505b505050565b600082821c905092915050565b6000612a8160001984600802612a63565b1980831691505092915050565b6000612a9a8383612a70565b9150826002028217905092915050565b612ab382611ffa565b67ffffffffffffffff811115612acc57612acb61217f565b5b612ad6825461269d565b612ae1828285612a1d565b600060209050601f831160018114612b145760008415612b02578287015190505b612b0c8582612a8e565b865550612b74565b601f198416612b2286612908565b60005b82811015612b4a57848901518255600182019150602085019450602081019050612b25565b86831015612b675784890151612b63601f891682612a70565b8355505b6001600288020188555050505b505050505050565b6000612b8782611e48565b9150637fffffff8203612b9d57612b9c612306565b5b60018201905091905056fea2646970667358221220689071b9086eb315ebc555a693c79ac9b804ef49b599d2bc0b8364013d46380164736f6c634300081b0033",
  "linkReferences": {},
  "deployedLinkReferences": {}
}