{
  "_format": "hh-sol-artifact-1",
  "contractName": "OrderingContract",
  "sourceName": "contracts/OrderingContract.sol",
  "abi": [
    {
      "inputs": [
        {
          "internalType": "address",
          "name": "processContractAddress",
          "type": "address"
        }
      ],
      "stateMutability": "nonpayable",
      "type": "constructor"
    },
    {
      "anonymous": false,
      "inputs": [
        {
          "indexed": true,
          "internalType": "uint256",
          "name": "domain",
          "type": "uint256"
        }
      ],
      "name": "Conflict",
      "type": "event"
    },
    {
      "inputs": [],
      "name": "block_interval",
      "outputs": [
        {
          "internalType": "uint256",
          "name": "",
          "type": "uint256"
        }
      ],
      "stateMutability": "view",
      "type": "function"
    },
    {
      "inputs": [],
      "name": "domain_count",
      "outputs": [
        {
          "internalType": "uint256",
          "name": "",
          "type": "uint256"
        }
      ],
      "stateMutability": "view",
      "type": "function"
    },
    {
      "inputs": [
        {
          "internalType": "uint256",
          "name": "",
          "type": "uint256"
        }
      ],
      "name": "domains",
      "outputs": [
        {
          "internalType": "uint256",
          "name": "id",
          "type": "uint256"
        },
        {
          "internalType": "enum OrderingContract.DomainStatus",
          "name": "status",
          "type": "uint8"
        },
        {
          "internalType": "uint256",
          "name": "vote_count",
          "type": "uint256"
        },
        {
          "internalType": "uint256",
          "name": "orderers_count",
          "type": "uint256"
        }
      ],
      "stateMutability": "view",
      "type": "function"
    },
    {
      "inputs": [
        {
          "internalType": "uint256",
          "name": "domainId",
          "type": "uint256"
        }
      ],
      "name": "getDomainByIndex",
      "outputs": [
        {
          "internalType": "uint256",
          "name": "id",
          "type": "uint256"
        },
        {
          "internalType": "uint256",
          "name": "voteCount",
          "type": "uint256"
        },
        {
          "internalType": "uint256",
          "name": "orderersCount",
          "type": "uint256"
        },
        {
          "internalType": "enum OrderingContract.DomainStatus",
          "name": "status",
          "type": "uint8"
        },
        {
          "internalType": "uint256[]",
          "name": "orderedInteractions",
          "type": "uint256[]"
        }
      ],
      "stateMutability": "view",
      "type": "function"
    },
    {
      "inputs": [],
      "name": "index_block",
      "outputs": [
        {
          "internalType": "uint256",
          "name": "",
          "type": "uint256"
        }
      ],
      "stateMutability": "view",
      "type": "function"
    },
    {
      "inputs": [
        {
          "internalType": "uint256",
          "name": "domainId",
          "type": "uint256"
        },
        {
          "internalType": "uint256[]",
          "name": "indicesToReorder",
          "type": "uint256[]"
        }
      ],
      "name": "orderInteraction",
      "outputs": [],
      "stateMutability": "nonpayable",
      "type": "function"
    },
    {
      "inputs": [
        {
          "internalType": "uint256",
          "name": "",
          "type": "uint256"
        }
      ],
      "name": "pending_interactions",
      "outputs": [
        {
          "internalType": "uint256",
          "name": "instance",
          "type": "uint256"
        },
        {
          "internalType": "address",
          "name": "sender",
          "type": "address"
        },
        {
          "internalType": "address",
          "name": "receiver",
          "type": "address"
        },
        {
          "internalType": "string",
          "name": "task",
          "type": "string"
        },
        {
          "internalType": "uint256",
          "name": "block_number",
          "type": "uint256"
        },
        {
          "internalType": "uint256",
          "name": "domain",
          "type": "uint256"
        }
      ],
      "stateMutability": "view",
      "type": "function"
    },
    {
      "inputs": [],
      "name": "process",
      "outputs": [
        {
          "internalType": "contract IProcessContract",
          "name": "",
          "type": "address"
        }
      ],
      "stateMutability": "view",
      "type": "function"
    },
    {
      "inputs": [],
      "name": "release",
      "outputs": [],
      "stateMutability": "nonpayable",
      "type": "function"
    },
    {
      "inputs": [
        {
          "internalType": "uint256",
          "name": "instance",
          "type": "uint256"
        },
        {
          "internalType": "string",
          "name": "task",
          "type": "string"
        }
      ],
      "name": "submitInteraction",
      "outputs": [],
      "stateMutability": "nonpayable",
      "type": "function"
    },
    {
      "inputs": [],
      "name": "workflow_address",
      "outputs": [
        {
          "internalType": "address",
          "name": "",
          "type": "address"
        }
      ],
      "stateMutability": "view",
      "type": "function"
    }
  ],
  "bytecode": "0x608060405260056002556000600355600060045534801561001f57600080fd5b50604051612aeb380380612aeb83398181016040528101906100419190610159565b600073ffffffffffffffffffffffffffffffffffffffff168173ffffffffffffffffffffffffffffffffffffffff16036100b0576040517f08c379a00000000000000000000000000000000000000000000000000000000081526004016100a7906101e3565b60405180910390fd5b806000806101000a81548173ffffffffffffffffffffffffffffffffffffffff021916908373ffffffffffffffffffffffffffffffffffffffff16021790555050610203565b600080fd5b600073ffffffffffffffffffffffffffffffffffffffff82169050919050565b6000610126826100fb565b9050919050565b6101368161011b565b811461014157600080fd5b50565b6000815190506101538161012d565b92915050565b60006020828403121561016f5761016e6100f6565b5b600061017d84828501610144565b91505092915050565b600082825260208201905092915050565b7f496e76616c696420616464726573730000000000000000000000000000000000600082015250565b60006101cd600f83610186565b91506101d882610197565b602082019050919050565b600060208201905081810360008301526101fc816101c0565b9050919050565b6128d9806102126000396000f3fe608060405234801561001057600080fd5b50600436106100a95760003560e01c806386d1a69f1161007157806386d1a69f14610184578063b49ab3be1461018e578063ba1810e4146101ac578063c33fb877146101ca578063f4303694146101e8578063fcd70e0514610206576100a9565b8063296973dc146100ae5780634828627b146100cc5780636440aee61461010057806366cf8fab146101355780636c4e7ab414610168575b600080fd5b6100b6610222565b6040516100c39190611a78565b60405180910390f35b6100e660048036038101906100e19190611ad3565b610228565b6040516100f7959493929190611c35565b60405180910390f35b61011a60048036038101906101159190611ad3565b6102d2565b60405161012c96959493929190611d60565b60405180910390f35b61014f600480360381019061014a9190611ad3565b6103e6565b60405161015f9493929190611dc8565b60405180910390f35b610182600480360381019061017d9190611e72565b610423565b005b61018c6107ba565b005b6101966108b1565b6040516101a39190611a78565b60405180910390f35b6101b46108b7565b6040516101c19190611ed2565b60405180910390f35b6101d26108dd565b6040516101df9190611f4c565b60405180910390f35b6101f0610901565b6040516101fd9190611a78565b60405180910390f35b610220600480360381019061021b9190612097565b610907565b005b60045481565b600080600080606060006006600088815260200190815260200160002090508060000154816003015482600501548360010160009054906101000a900460ff1684600401808054806020026020016040519081016040528092919081815260200182805480156102b757602002820191906000526020600020905b8154815260200190600101908083116102a3575b50505050509050955095509550955095505091939590929450565b600581815481106102e257600080fd5b90600052602060002090600602016000915090508060000154908060010160009054906101000a900473ffffffffffffffffffffffffffffffffffffffff16908060020160009054906101000a900473ffffffffffffffffffffffffffffffffffffffff169080600301805461035790612122565b80601f016020809104026020016040519081016040528092919081815260200182805461038390612122565b80156103d05780601f106103a5576101008083540402835291602001916103d0565b820191906000526020600020905b8154815290600101906020018083116103b357829003601f168201915b5050505050908060040154908060050154905086565b60066020528060005260406000206000915090508060000154908060010160009054906101000a900460ff16908060030154908060050154905084565b60006003541415801561044557506002546003546104419190612182565b4310155b610484576040517f08c379a000000000000000000000000000000000000000000000000000000000815260040161047b90612202565b60405180910390fd5b600182829050116104ca576040517f08c379a00000000000000000000000000000000000000000000000000000000081526004016104c190612294565b60405180910390fd5b6000600660008581526020019081526020016000209050600060058054905067ffffffffffffffff81111561050257610501611f6c565b5b6040519080825280602002602001820160405280156105305781602001602082028036833780820191505090505b50905060005b84849050811015610636576000858583818110610556576105556122b4565b5b90506020020135905060058054905081106105a6576040517f08c379a000000000000000000000000000000000000000000000000000000000815260040161059d9061232f565b60405180910390fd5b8281815181106105b9576105b86122b4565b5b602002602001015115610601576040517f08c379a00000000000000000000000000000000000000000000000000000000081526004016105f8906123c1565b60405180910390fd5b6001838281518110610616576106156122b4565b5b602002602001019015159081151581525050508080600101915050610536565b5081600301600081548092919061064c906123e1565b919050555060008060005b8686905081101561075d576000878783818110610677576106766122b4565b5b9050602002013590506000805b87600401805490508110156106d357828860040182815481106106aa576106a96122b4565b5b9060005260206000200154036106c657600191508094506106d3565b8080600101915050610684565b508015610722578484106106e95783945061071d565b897fc13eaf0cd79c2a9764579919a419b994e462a8eb6ed95b7d72850e6f5a26f68c60405160405180910390a2505061075d565b61074e565b866004018290806001815401808255809150506001900390600052602060002001600090919091909150555b50508080600101915050610657565b50836005015484600301540361079b5760018460010160006101000a81548160ff0219169083600281111561079557610794611b00565b5b02179055505b6107a3610b6b565b156107b1576107b0610bf1565b5b50505050505050565b6000600354141580156107dc57506002546003546107d89190612182565b4310155b80156107eb5750600160045410155b61082a576040517f08c379a000000000000000000000000000000000000000000000000000000000815260040161082190612475565b60405180910390fd5b6000600190505b60045481116108a6576000600660008381526020019081526020016000206005015414610893576040517f08c379a000000000000000000000000000000000000000000000000000000000815260040161088a90612507565b60405180910390fd5b808061089e906123e1565b915050610831565b506108af610c87565b565b60025481565b600160009054906101000a900473ffffffffffffffffffffffffffffffffffffffff1681565b60008054906101000a900473ffffffffffffffffffffffffffffffffffffffff1681565b60035481565b60006003540361091957436003819055505b6002546003546109299190612182565b431061096a576040517f08c379a000000000000000000000000000000000000000000000000000000000815260040161096190612573565b60405180910390fd5b60008060008054906101000a900473ffffffffffffffffffffffffffffffffffffffff1673ffffffffffffffffffffffffffffffffffffffff1663cb61b29a85856040518363ffffffff1660e01b81526004016109c8929190612593565b6040805180830381865afa1580156109e4573d6000803e3d6000fd5b505050506040513d601f19601f82011682018060405250810190610a0891906125ef565b9150915060056040518060c001604052808681526020018473ffffffffffffffffffffffffffffffffffffffff1681526020018373ffffffffffffffffffffffffffffffffffffffff168152602001858152602001438152602001600081525090806001815401808255809150506001900390600052602060002090600602016000909190919091506000820151816000015560208201518160010160006101000a81548173ffffffffffffffffffffffffffffffffffffffff021916908373ffffffffffffffffffffffffffffffffffffffff16021790555060408201518160020160006101000a81548173ffffffffffffffffffffffffffffffffffffffff021916908373ffffffffffffffffffffffffffffffffffffffff1602179055506060820151816003019081610b3e91906127d1565b506080820151816004015560a082015181600501555050610b5d610c91565b610b65610e87565b50505050565b600080600190505b6004548111610be85760006002811115610b9057610b8f611b00565b5b6006600083815260200190815260200160002060010160009054906101000a900460ff166002811115610bc657610bc5611b00565b5b03610bd5576000915050610bee565b8080610be0906123e1565b915050610b73565b50600190505b90565b6000600190505b6004548111610c6657600660008281526020019081526020016000206000808201600090556001820160006101000a81549060ff02191690556003820160009055600482016000610c499190611930565b600582016000905550508080610c5e906123e1565b915050610bf8565b5060056000610c759190611951565b60006004819055506000600381905550565b610c8f610bf1565b565b60005b600580549050811015610e8457600060058281548110610cb757610cb66122b4565b5b90600052602060002090600602016040518060c0016040529081600082015481526020016001820160009054906101000a900473ffffffffffffffffffffffffffffffffffffffff1673ffffffffffffffffffffffffffffffffffffffff1673ffffffffffffffffffffffffffffffffffffffff1681526020016002820160009054906101000a900473ffffffffffffffffffffffffffffffffffffffff1673ffffffffffffffffffffffffffffffffffffffff1673ffffffffffffffffffffffffffffffffffffffff168152602001600382018054610d9690612122565b80601f0160208091040260200160405190810160405280929190818152602001828054610dc290612122565b8015610e0f5780601f10610de457610100808354040283529160200191610e0f565b820191906000526020600020905b815481529060010190602001808311610df257829003601f168201915b5050505050815260200160048201548152602001600582015481525050905060008160a00151905060008103610e7557610e48836113c4565b90508060058481548110610e5f57610e5e6122b4565b5b9060005260206000209060060201600501819055505b50508080600101915050610c94565b50565b60005b6005805490508110156113c157600060058281548110610ead57610eac6122b4565b5b906000526020600020906006020160010160009054906101000a900473ffffffffffffffffffffffffffffffffffffffff169050600060058381548110610ef757610ef66122b4565b5b906000526020600020906006020160020160009054906101000a900473ffffffffffffffffffffffffffffffffffffffff169050600060058481548110610f4157610f406122b4565b5b906000526020600020906006020160050154905060005b6005805490508110156113b0578085146113a35760058181548110610f8057610f7f6122b4565b5b906000526020600020906006020160010160009054906101000a900473ffffffffffffffffffffffffffffffffffffffff1673ffffffffffffffffffffffffffffffffffffffff168473ffffffffffffffffffffffffffffffffffffffff16148061105b575060058181548110610ffa57610ff96122b4565b5b906000526020600020906006020160020160009054906101000a900473ffffffffffffffffffffffffffffffffffffffff1673ffffffffffffffffffffffffffffffffffffffff168473ffffffffffffffffffffffffffffffffffffffff16145b156111875761106a8285611881565b6111865760405180604001604052808573ffffffffffffffffffffffffffffffffffffffff168152602001600015158152506006600084815260200190815260200160002060020160008673ffffffffffffffffffffffffffffffffffffffff1673ffffffffffffffffffffffffffffffffffffffff16815260200190815260200160002060008201518160000160006101000a81548173ffffffffffffffffffffffffffffffffffffffff021916908373ffffffffffffffffffffffffffffffffffffffff16021790555060208201518160000160146101000a81548160ff021916908315150217905550905050600660008381526020019081526020016000206005016000815480929190611180906123e1565b91905055505b5b6005818154811061119b5761119a6122b4565b5b906000526020600020906006020160010160009054906101000a900473ffffffffffffffffffffffffffffffffffffffff1673ffffffffffffffffffffffffffffffffffffffff168373ffffffffffffffffffffffffffffffffffffffff161480611276575060058181548110611215576112146122b4565b5b906000526020600020906006020160020160009054906101000a900473ffffffffffffffffffffffffffffffffffffffff1673ffffffffffffffffffffffffffffffffffffffff168373ffffffffffffffffffffffffffffffffffffffff16145b156113a2576112858284611881565b6113a15760405180604001604052808473ffffffffffffffffffffffffffffffffffffffff168152602001600015158152506006600084815260200190815260200160002060020160008573ffffffffffffffffffffffffffffffffffffffff1673ffffffffffffffffffffffffffffffffffffffff16815260200190815260200160002060008201518160000160006101000a81548173ffffffffffffffffffffffffffffffffffffffff021916908373ffffffffffffffffffffffffffffffffffffffff16021790555060208201518160000160146101000a81548160ff02191690831515021790555090505060066000838152602001908152602001600020600501600081548092919061139b906123e1565b91905055505b5b5b8080600101915050610f58565b505050508080600101915050610e8a565b50565b600080600583815481106113db576113da6122b4565b5b90600052602060002090600602016040518060c0016040529081600082015481526020016001820160009054906101000a900473ffffffffffffffffffffffffffffffffffffffff1673ffffffffffffffffffffffffffffffffffffffff1673ffffffffffffffffffffffffffffffffffffffff1681526020016002820160009054906101000a900473ffffffffffffffffffffffffffffffffffffffff1673ffffffffffffffffffffffffffffffffffffffff1673ffffffffffffffffffffffffffffffffffffffff1681526020016003820180546114ba90612122565b80601f01602080910402602001604051908101604052809291908181526020018280546114e690612122565b80156115335780601f1061150857610100808354040283529160200191611533565b820191906000526020600020905b81548152906001019060200180831161151657829003601f168201915b5050505050815260200160048201548152602001600582015481525050905060005b60058054905081101561180a578084146117fd5760006005828154811061157f5761157e6122b4565b5b90600052602060002090600602016040518060c0016040529081600082015481526020016001820160009054906101000a900473ffffffffffffffffffffffffffffffffffffffff1673ffffffffffffffffffffffffffffffffffffffff1673ffffffffffffffffffffffffffffffffffffffff1681526020016002820160009054906101000a900473ffffffffffffffffffffffffffffffffffffffff1673ffffffffffffffffffffffffffffffffffffffff1673ffffffffffffffffffffffffffffffffffffffff16815260200160038201805461165e90612122565b80601f016020809104026020016040519081016040528092919081815260200182805461168a90612122565b80156116d75780601f106116ac576101008083540402835291602001916116d7565b820191906000526020600020905b8154815290600101906020018083116116ba57829003601f168201915b50505050508152602001600482015481526020016005820154815250509050806020015173ffffffffffffffffffffffffffffffffffffffff16836020015173ffffffffffffffffffffffffffffffffffffffff16148061176b5750806040015173ffffffffffffffffffffffffffffffffffffffff16836020015173ffffffffffffffffffffffffffffffffffffffff16145b806117a95750806020015173ffffffffffffffffffffffffffffffffffffffff16836040015173ffffffffffffffffffffffffffffffffffffffff16145b806117e75750806040015173ffffffffffffffffffffffffffffffffffffffff16836040015173ffffffffffffffffffffffffffffffffffffffff16145b156117fb578060a00151935050505061187c565b505b8080600101915050611555565b506004600081548092919061181e906123e1565b919050555060006006600060045481526020019081526020016000209050600454816000018190555060008160010160006101000a81548160ff0219169083600281111561186f5761186e611b00565b5b0217905550600454925050505b919050565b60008173ffffffffffffffffffffffffffffffffffffffff166006600085815260200190815260200160002060020160008473ffffffffffffffffffffffffffffffffffffffff1673ffffffffffffffffffffffffffffffffffffffff16815260200190815260200160002060000160009054906101000a900473ffffffffffffffffffffffffffffffffffffffff1673ffffffffffffffffffffffffffffffffffffffff1614905092915050565b508054600082559060005260206000209081019061194e9190611975565b50565b50805460008255600602906000526020600020908101906119729190611992565b50565b5b8082111561198e576000816000905550600101611976565b5090565b5b80821115611a1b576000808201600090556001820160006101000a81549073ffffffffffffffffffffffffffffffffffffffff02191690556002820160006101000a81549073ffffffffffffffffffffffffffffffffffffffff0219169055600382016000611a029190611a1f565b6004820160009055600582016000905550600601611993565b5090565b508054611a2b90612122565b6000825580601f10611a3d5750611a5c565b601f016020900490600052602060002090810190611a5b9190611975565b5b50565b6000819050919050565b611a7281611a5f565b82525050565b6000602082019050611a8d6000830184611a69565b92915050565b6000604051905090565b600080fd5b600080fd5b611ab081611a5f565b8114611abb57600080fd5b50565b600081359050611acd81611aa7565b92915050565b600060208284031215611ae957611ae8611a9d565b5b6000611af784828501611abe565b91505092915050565b7f4e487b7100000000000000000000000000000000000000000000000000000000600052602160045260246000fd5b60038110611b4057611b3f611b00565b5b50565b6000819050611b5182611b2f565b919050565b6000611b6182611b43565b9050919050565b611b7181611b56565b82525050565b600081519050919050565b600082825260208201905092915050565b6000819050602082019050919050565b611bac81611a5f565b82525050565b6000611bbe8383611ba3565b60208301905092915050565b6000602082019050919050565b6000611be282611b77565b611bec8185611b82565b9350611bf783611b93565b8060005b83811015611c28578151611c0f8882611bb2565b9750611c1a83611bca565b925050600181019050611bfb565b5085935050505092915050565b600060a082019050611c4a6000830188611a69565b611c576020830187611a69565b611c646040830186611a69565b611c716060830185611b68565b8181036080830152611c838184611bd7565b90509695505050505050565b600073ffffffffffffffffffffffffffffffffffffffff82169050919050565b6000611cba82611c8f565b9050919050565b611cca81611caf565b82525050565b600081519050919050565b600082825260208201905092915050565b60005b83811015611d0a578082015181840152602081019050611cef565b60008484015250505050565b6000601f19601f8301169050919050565b6000611d3282611cd0565b611d3c8185611cdb565b9350611d4c818560208601611cec565b611d5581611d16565b840191505092915050565b600060c082019050611d756000830189611a69565b611d826020830188611cc1565b611d8f6040830187611cc1565b8181036060830152611da18186611d27565b9050611db06080830185611a69565b611dbd60a0830184611a69565b979650505050505050565b6000608082019050611ddd6000830187611a69565b611dea6020830186611b68565b611df76040830185611a69565b611e046060830184611a69565b95945050505050565b600080fd5b600080fd5b600080fd5b60008083601f840112611e3257611e31611e0d565b5b8235905067ffffffffffffffff811115611e4f57611e4e611e12565b5b602083019150836020820283011115611e6b57611e6a611e17565b5b9250929050565b600080600060408486031215611e8b57611e8a611a9d565b5b6000611e9986828701611abe565b935050602084013567ffffffffffffffff811115611eba57611eb9611aa2565b5b611ec686828701611e1c565b92509250509250925092565b6000602082019050611ee76000830184611cc1565b92915050565b6000819050919050565b6000611f12611f0d611f0884611c8f565b611eed565b611c8f565b9050919050565b6000611f2482611ef7565b9050919050565b6000611f3682611f19565b9050919050565b611f4681611f2b565b82525050565b6000602082019050611f616000830184611f3d565b92915050565b600080fd5b7f4e487b7100000000000000000000000000000000000000000000000000000000600052604160045260246000fd5b611fa482611d16565b810181811067ffffffffffffffff82111715611fc357611fc2611f6c565b5b80604052505050565b6000611fd6611a93565b9050611fe28282611f9b565b919050565b600067ffffffffffffffff82111561200257612001611f6c565b5b61200b82611d16565b9050602081019050919050565b82818337600083830152505050565b600061203a61203584611fe7565b611fcc565b90508281526020810184848401111561205657612055611f67565b5b612061848285612018565b509392505050565b600082601f83011261207e5761207d611e0d565b5b813561208e848260208601612027565b91505092915050565b600080604083850312156120ae576120ad611a9d565b5b60006120bc85828601611abe565b925050602083013567ffffffffffffffff8111156120dd576120dc611aa2565b5b6120e985828601612069565b9150509250929050565b7f4e487b7100000000000000000000000000000000000000000000000000000000600052602260045260246000fd5b6000600282049050600182168061213a57607f821691505b60208210810361214d5761214c6120f3565b5b50919050565b7f4e487b7100000000000000000000000000000000000000000000000000000000600052601160045260246000fd5b600061218d82611a5f565b915061219883611a5f565b92508282019050808211156121b0576121af612153565b5b92915050565b7f43616e277420766f7465206e6f772e0000000000000000000000000000000000600082015250565b60006121ec600f83611cdb565b91506121f7826121b6565b602082019050919050565b6000602082019050818103600083015261221b816121df565b9050919050565b7f4e656564206174206c656173742074776f20696e646963657320746f2072656f60008201527f7264657200000000000000000000000000000000000000000000000000000000602082015250565b600061227e602483611cdb565b915061228982612222565b604082019050919050565b600060208201905081810360008301526122ad81612271565b9050919050565b7f4e487b7100000000000000000000000000000000000000000000000000000000600052603260045260246000fd5b7f496e76616c696420696e746572616374696f6e20494400000000000000000000600082015250565b6000612319601683611cdb565b9150612324826122e3565b602082019050919050565b600060208201905081810360008301526123488161230c565b9050919050565b7f4475706c696361746520696e746572616374696f6e20494420696e207468652060008201527f6f72646572000000000000000000000000000000000000000000000000000000602082015250565b60006123ab602583611cdb565b91506123b68261234f565b604082019050919050565b600060208201905081810360008301526123da8161239e565b9050919050565b60006123ec82611a5f565b91507fffffffffffffffffffffffffffffffffffffffffffffffffffffffffffffffff820361241e5761241d612153565b5b600182019050919050565b7f43616e6e6f742072656c65617365000000000000000000000000000000000000600082015250565b600061245f600e83611cdb565b915061246a82612429565b602082019050919050565b6000602082019050818103600083015261248e81612452565b9050919050565b7f4e6f7420616c6c20646f6d61696e732068617665207a65726f206f726465726560008201527f7273000000000000000000000000000000000000000000000000000000000000602082015250565b60006124f1602283611cdb565b91506124fc82612495565b604082019050919050565b60006020820190508181036000830152612520816124e4565b9050919050565b7f5472616e73616374696f6e73206c697374206973206c6f636b65642e00000000600082015250565b600061255d601c83611cdb565b915061256882612527565b602082019050919050565b6000602082019050818103600083015261258c81612550565b9050919050565b60006040820190506125a86000830185611a69565b81810360208301526125ba8184611d27565b90509392505050565b6125cc81611caf565b81146125d757600080fd5b50565b6000815190506125e9816125c3565b92915050565b6000806040838503121561260657612605611a9d565b5b6000612614858286016125da565b9250506020612625858286016125da565b9150509250929050565b60008190508160005260206000209050919050565b60006020601f8301049050919050565b600082821b905092915050565b6000600883026126917fffffffffffffffffffffffffffffffffffffffffffffffffffffffffffffffff82612654565b61269b8683612654565b95508019841693508086168417925050509392505050565b60006126ce6126c96126c484611a5f565b611eed565b611a5f565b9050919050565b6000819050919050565b6126e8836126b3565b6126fc6126f4826126d5565b848454612661565b825550505050565b600090565b612711612704565b61271c8184846126df565b505050565b5b8181101561274057612735600082612709565b600181019050612722565b5050565b601f821115612785576127568161262f565b61275f84612644565b8101602085101561276e578190505b61278261277a85612644565b830182612721565b50505b505050565b600082821c905092915050565b60006127a86000198460080261278a565b1980831691505092915050565b60006127c18383612797565b9150826002028217905092915050565b6127da82611cd0565b67ffffffffffffffff8111156127f3576127f2611f6c565b5b6127fd8254612122565b612808828285612744565b600060209050601f83116001811461283b5760008415612829578287015190505b61283385826127b5565b86555061289b565b601f1984166128498661262f565b60005b828110156128715784890151825560018201915060208501945060208101905061284c565b8683101561288e578489015161288a601f891682612797565b8355505b6001600288020188555050505b50505050505056fea26469706673582212207799228063080cda732ad16b79769c66bfa75f9c8585169beaf2f421c34abba864736f6c634300081b0033",
  "linkReferences": {},
  "deployedLinkReferences": {}
}