{
  "_format": "hh-sol-artifact-1",
  "contractName": "ProcessContract",
  "sourceName": "contracts/ProcessContract.sol",
  "abi": [
    {
      "inputs": [],
      "stateMutability": "nonpayable",
      "type": "constructor"
    },
    {
      "inputs": [
        {
          "internalType": "uint256",
          "name": "instanceID",
          "type": "uint256"
        }
      ],
      "name": "CancelOrder",
      "outputs": [],
      "stateMutability": "nonpayable",
      "type": "function"
    },
    {
      "inputs": [
        {
          "internalType": "uint256",
          "name": "instanceID",
          "type": "uint256"
        }
      ],
      "name": "ConfirmOrder",
      "outputs": [],
      "stateMutability": "nonpayable",
      "type": "function"
    },
    {
      "inputs": [
        {
          "internalType": "uint256",
          "name": "instanceID",
          "type": "uint256"
        }
      ],
      "name": "ConfirmRestock",
      "outputs": [],
      "stateMutability": "nonpayable",
      "type": "function"
    },
    {
      "inputs": [
        {
          "internalType": "uint256",
          "name": "instanceID",
          "type": "uint256"
        }
      ],
      "name": "PurchaseOrder",
      "outputs": [],
      "stateMutability": "nonpayable",
      "type": "function"
    },
    {
      "inputs": [
        {
          "internalType": "uint256",
          "name": "instanceID",
          "type": "uint256"
        }
      ],
      "name": "RestockRequest",
      "outputs": [
        {
          "internalType": "uint256",
          "name": "",
          "type": "uint256"
        }
      ],
      "stateMutability": "nonpayable",
      "type": "function"
    },
    {
      "inputs": [
        {
          "internalType": "uint256",
          "name": "instanceID",
          "type": "uint256"
        },
        {
          "internalType": "string",
          "name": "taskName",
          "type": "string"
        }
      ],
      "name": "getParticipantsByTask",
      "outputs": [
        {
          "internalType": "address",
          "name": "sender",
          "type": "address"
        },
        {
          "internalType": "address",
          "name": "receiver",
          "type": "address"
        }
      ],
      "stateMutability": "view",
      "type": "function"
    },
    {
      "inputs": [
        {
          "internalType": "uint256",
          "name": "instanceID",
          "type": "uint256"
        },
        {
          "internalType": "string",
          "name": "_activity",
          "type": "string"
        }
      ],
      "name": "getState",
      "outputs": [
        {
          "internalType": "enum ProcessContract.State",
          "name": "",
          "type": "uint8"
        }
      ],
      "stateMutability": "view",
      "type": "function"
    },
    {
      "inputs": [],
      "name": "globalData",
      "outputs": [
        {
          "internalType": "uint256",
          "name": "basePrice",
          "type": "uint256"
        },
        {
          "internalType": "uint256",
          "name": "demandFactor",
          "type": "uint256"
        },
        {
          "internalType": "uint256",
          "name": "requestCount",
          "type": "uint256"
        }
      ],
      "stateMutability": "view",
      "type": "function"
    },
    {
      "inputs": [],
      "name": "instancesCount",
      "outputs": [
        {
          "internalType": "uint256",
          "name": "",
          "type": "uint256"
        }
      ],
      "stateMutability": "view",
      "type": "function"
    },
    {
      "inputs": [
        {
          "internalType": "uint256",
          "name": "",
          "type": "uint256"
        }
      ],
      "name": "intances",
      "outputs": [
        {
          "components": [
            {
              "internalType": "uint256",
              "name": "supplies",
              "type": "uint256"
            }
          ],
          "internalType": "struct ProcessContract.LocalData",
          "name": "localData",
          "type": "tuple"
        }
      ],
      "stateMutability": "view",
      "type": "function"
    },
    {
      "inputs": [],
      "name": "resetData",
      "outputs": [],
      "stateMutability": "nonpayable",
      "type": "function"
    },
    {
      "inputs": [
        {
          "internalType": "uint256",
          "name": "instanceID",
          "type": "uint256"
        },
        {
          "internalType": "string",
          "name": "taskName",
          "type": "string"
        },
        {
          "internalType": "address",
          "name": "sender",
          "type": "address"
        },
        {
          "internalType": "address",
          "name": "receiver",
          "type": "address"
        }
      ],
      "name": "setParticipantsByTask",
      "outputs": [],
      "stateMutability": "nonpayable",
      "type": "function"
    },
    {
      "inputs": [
        {
          "internalType": "uint256",
          "name": "instanceID",
          "type": "uint256"
        },
        {
          "internalType": "string",
          "name": "_activity",
          "type": "string"
        },
        {
          "internalType": "uint8",
          "name": "_state",
          "type": "uint8"
        }
      ],
      "name": "setState",
      "outputs": [],
      "stateMutability": "nonpayable",
      "type": "function"
    }
  ],
  "bytecode": "0x6080604052348015600f57600080fd5b50611d1f8061001f6000396000f3fe608060405234801561001057600080fd5b50600436106100cf5760003560e01c8063935c9ad21161008c578063b5672faf11610066578063b5672faf146101ec578063b8d57af614610208578063cb61b29a14610224578063f4f5676d14610255576100cf565b8063935c9ad2146101705780639b069a081461018c578063b12f89be146101bc576100cf565b80633d67bb41146100d4578063478c4e0e146100f0578063552f75a0146100fa578063570c2fa914610118578063613ce4101461013457806376378de014610154575b600080fd5b6100ee60048036038101906100e991906112eb565b610285565b005b6100f8610557565b005b61010261059c565b60405161010f9190611327565b60405180910390f35b610132600480360381019061012d91906114e6565b6105a2565b005b61013c6106ab565b60405161014b93929190611569565b60405180910390f35b61016e600480360381019061016991906112eb565b6106c3565b005b61018a600480360381019061018591906112eb565b610934565b005b6101a660048036038101906101a191906112eb565b610b2f565b6040516101b391906115cb565b60405180910390f35b6101d660048036038101906101d191906115e6565b610b61565b6040516101e391906116b9565b60405180910390f35b610206600480360381019061020191906112eb565b610baa565b005b610222600480360381019061021d919061170d565b610da5565b005b61023e600480360381019061023991906115e6565b610e5f565b60405161024c92919061178b565b60405180910390f35b61026f600480360381019061026a91906112eb565b610f64565b60405161027c9190611327565b60405180910390f35b806040518060400160405280600d81526020017f50757263686173654f7264657200000000000000000000000000000000000000815250600160028111156102d0576102cf611642565b5b600080848152602001908152602001600020600101826040516102f39190611825565b908152602001604051809103902060009054906101000a900460ff16600281111561032157610320611642565b5b14610361576040517f08c379a000000000000000000000000000000000000000000000000000000000815260040161035890611899565b60405180910390fd5b3373ffffffffffffffffffffffffffffffffffffffff166000808481526020019081526020016000206002018260405161039b9190611825565b908152602001604051809103902060000160009054906101000a900473ffffffffffffffffffffffffffffffffffffffff1673ffffffffffffffffffffffffffffffffffffffff1614610423576040517f08c379a000000000000000000000000000000000000000000000000000000000815260040161041a9061192b565b60405180910390fd5b60008060008581526020019081526020016000206000016000015411156104a157600160008085815260200190815260200160002060010160405161046790611997565b908152602001604051809103902060006101000a81548160ff0219169083600281111561049757610496611642565b5b02179055506104fa565b60016000808581526020019081526020016000206001016040516104c4906119f8565b908152602001604051809103902060006101000a81548160ff021916908360028111156104f4576104f3611642565b5b02179055505b600260008085815260200190815260200160002060010160405161051d90611a59565b908152602001604051809103902060006101000a81548160ff0219169083600281111561054d5761054c611642565b5b0217905550505050565b60005b60015481101561058f57600160008083815260200190815260200160002060000160000181905550808060010191505061055a565b5060006002800181905550565b60015481565b60405180604001604052808373ffffffffffffffffffffffffffffffffffffffff1681526020018273ffffffffffffffffffffffffffffffffffffffff16815250600080868152602001908152602001600020600201846040516106069190611825565b908152602001604051809103902060008201518160000160006101000a81548173ffffffffffffffffffffffffffffffffffffffff021916908373ffffffffffffffffffffffffffffffffffffffff16021790555060208201518160010160006101000a81548173ffffffffffffffffffffffffffffffffffffffff021916908373ffffffffffffffffffffffffffffffffffffffff16021790555090505050505050565b60028060000154908060010154908060020154905083565b806040518060400160405280600e81526020017f436f6e6669726d526573746f636b0000000000000000000000000000000000008152506001600281111561070e5761070d611642565b5b600080848152602001908152602001600020600101826040516107319190611825565b908152602001604051809103902060009054906101000a900460ff16600281111561075f5761075e611642565b5b1461079f576040517f08c379a000000000000000000000000000000000000000000000000000000000815260040161079690611899565b60405180910390fd5b3373ffffffffffffffffffffffffffffffffffffffff16600080848152602001908152602001600020600201826040516107d99190611825565b908152602001604051809103902060000160009054906101000a900473ffffffffffffffffffffffffffffffffffffffff1673ffffffffffffffffffffffffffffffffffffffff1614610861576040517f08c379a00000000000000000000000000000000000000000000000000000000081526004016108589061192b565b60405180910390fd5b60016000808581526020019081526020016000206000016000018190555060016000808581526020019081526020016000206001016040516108a290611997565b908152602001604051809103902060006101000a81548160ff021916908360028111156108d2576108d1611642565b5b021790555060026000808581526020019081526020016000206001016040516108fa90611aba565b908152602001604051809103902060006101000a81548160ff0219169083600281111561092a57610929611642565b5b0217905550505050565b806040518060400160405280600b81526020017f43616e63656c4f726465720000000000000000000000000000000000000000008152506001600281111561097f5761097e611642565b5b600080848152602001908152602001600020600101826040516109a29190611825565b908152602001604051809103902060009054906101000a900460ff1660028111156109d0576109cf611642565b5b14610a10576040517f08c379a0000000000000000000000000000000000000000000000000000000008152600401610a0790611899565b60405180910390fd5b3373ffffffffffffffffffffffffffffffffffffffff1660008084815260200190815260200160002060020182604051610a4a9190611825565b908152602001604051809103902060000160009054906101000a900473ffffffffffffffffffffffffffffffffffffffff1673ffffffffffffffffffffffffffffffffffffffff1614610ad2576040517f08c379a0000000000000000000000000000000000000000000000000000000008152600401610ac99061192b565b60405180910390fd5b6002600080858152602001908152602001600020600101604051610af590611b1b565b908152602001604051809103902060006101000a81548160ff02191690836002811115610b2557610b24611642565b5b0217905550505050565b600060205280600052604060002060009150905080600001604051806020016040529081600082015481525050905081565b600080600084815260200190815260200160002060010182604051610b869190611825565b908152602001604051809103902060009054906101000a900460ff16905092915050565b806040518060400160405280600c81526020017f436f6e6669726d4f72646572000000000000000000000000000000000000000081525060016002811115610bf557610bf4611642565b5b60008084815260200190815260200160002060010182604051610c189190611825565b908152602001604051809103902060009054906101000a900460ff166002811115610c4657610c45611642565b5b14610c86576040517f08c379a0000000000000000000000000000000000000000000000000000000008152600401610c7d90611899565b60405180910390fd5b3373ffffffffffffffffffffffffffffffffffffffff1660008084815260200190815260200160002060020182604051610cc09190611825565b908152602001604051809103902060000160009054906101000a900473ffffffffffffffffffffffffffffffffffffffff1673ffffffffffffffffffffffffffffffffffffffff1614610d48576040517f08c379a0000000000000000000000000000000000000000000000000000000008152600401610d3f9061192b565b60405180910390fd5b6002600080858152602001908152602001600020600101604051610d6b90611997565b908152602001604051809103902060006101000a81548160ff02191690836002811115610d9b57610d9a611642565b5b0217905550505050565b60038160ff161115610dec576040517f08c379a0000000000000000000000000000000000000000000000000000000008152600401610de390611b7c565b60405180910390fd5b8060ff166002811115610e0257610e01611642565b5b60008085815260200190815260200160002060010183604051610e259190611825565b908152602001604051809103902060006101000a81548160ff02191690836002811115610e5557610e54611642565b5b0217905550505050565b600080600080600086815260200190815260200160002060020184604051610e879190611825565b90815260200160405180910390206040518060400160405290816000820160009054906101000a900473ffffffffffffffffffffffffffffffffffffffff1673ffffffffffffffffffffffffffffffffffffffff1673ffffffffffffffffffffffffffffffffffffffff1681526020016001820160009054906101000a900473ffffffffffffffffffffffffffffffffffffffff1673ffffffffffffffffffffffffffffffffffffffff1673ffffffffffffffffffffffffffffffffffffffff168152505090508060000151816020015192509250509250929050565b6000816040518060400160405280600e81526020017f526573746f636b5265717565737400000000000000000000000000000000000081525060016002811115610fb157610fb0611642565b5b60008084815260200190815260200160002060010182604051610fd49190611825565b908152602001604051809103902060009054906101000a900460ff16600281111561100257611001611642565b5b14611042576040517f08c379a000000000000000000000000000000000000000000000000000000000815260040161103990611899565b60405180910390fd5b3373ffffffffffffffffffffffffffffffffffffffff166000808481526020019081526020016000206002018260405161107c9190611825565b908152602001604051809103902060000160009054906101000a900473ffffffffffffffffffffffffffffffffffffffff1673ffffffffffffffffffffffffffffffffffffffff1614611104576040517f08c379a00000000000000000000000000000000000000000000000000000000081526004016110fb9061192b565b60405180910390fd5b60028001600081548092919061111990611bcb565b9190505550600061112861123d565b9050600160008087815260200190815260200160002060010160405161114d90611aba565b908152602001604051809103902060006101000a81548160ff0219169083600281111561117d5761117c611642565b5b021790555060016000808781526020019081526020016000206001016040516111a590611b1b565b908152602001604051809103902060006101000a81548160ff021916908360028111156111d5576111d4611642565b5b021790555060026000808781526020019081526020016000206001016040516111fd906119f8565b908152602001604051809103902060006101000a81548160ff0219169083600281111561122d5761122c611642565b5b0217905550809350505050919050565b600080600160028001541115611285576064600280015460026001015460026000015461126a9190611c13565b6112749190611c13565b61127e9190611c84565b905061128a565b600090505b8060026000015461129b9190611cb5565b91505090565b6000604051905090565b600080fd5b600080fd5b6000819050919050565b6112c8816112b5565b81146112d357600080fd5b50565b6000813590506112e5816112bf565b92915050565b600060208284031215611301576113006112ab565b5b600061130f848285016112d6565b91505092915050565b611321816112b5565b82525050565b600060208201905061133c6000830184611318565b92915050565b600080fd5b600080fd5b6000601f19601f8301169050919050565b7f4e487b7100000000000000000000000000000000000000000000000000000000600052604160045260246000fd5b6113958261134c565b810181811067ffffffffffffffff821117156113b4576113b361135d565b5b80604052505050565b60006113c76112a1565b90506113d3828261138c565b919050565b600067ffffffffffffffff8211156113f3576113f261135d565b5b6113fc8261134c565b9050602081019050919050565b82818337600083830152505050565b600061142b611426846113d8565b6113bd565b90508281526020810184848401111561144757611446611347565b5b611452848285611409565b509392505050565b600082601f83011261146f5761146e611342565b5b813561147f848260208601611418565b91505092915050565b600073ffffffffffffffffffffffffffffffffffffffff82169050919050565b60006114b382611488565b9050919050565b6114c3816114a8565b81146114ce57600080fd5b50565b6000813590506114e0816114ba565b92915050565b60008060008060808587031215611500576114ff6112ab565b5b600061150e878288016112d6565b945050602085013567ffffffffffffffff81111561152f5761152e6112b0565b5b61153b8782880161145a565b935050604061154c878288016114d1565b925050606061155d878288016114d1565b91505092959194509250565b600060608201905061157e6000830186611318565b61158b6020830185611318565b6115986040830184611318565b949350505050565b6115a9816112b5565b82525050565b6020820160008201516115c560008501826115a0565b50505050565b60006020820190506115e060008301846115af565b92915050565b600080604083850312156115fd576115fc6112ab565b5b600061160b858286016112d6565b925050602083013567ffffffffffffffff81111561162c5761162b6112b0565b5b6116388582860161145a565b9150509250929050565b7f4e487b7100000000000000000000000000000000000000000000000000000000600052602160045260246000fd5b6003811061168257611681611642565b5b50565b600081905061169382611671565b919050565b60006116a382611685565b9050919050565b6116b381611698565b82525050565b60006020820190506116ce60008301846116aa565b92915050565b600060ff82169050919050565b6116ea816116d4565b81146116f557600080fd5b50565b600081359050611707816116e1565b92915050565b600080600060608486031215611726576117256112ab565b5b6000611734868287016112d6565b935050602084013567ffffffffffffffff811115611755576117546112b0565b5b6117618682870161145a565b9250506040611772868287016116f8565b9150509250925092565b611785816114a8565b82525050565b60006040820190506117a0600083018561177c565b6117ad602083018461177c565b9392505050565b600081519050919050565b600081905092915050565b60005b838110156117e85780820151818401526020810190506117cd565b60008484015250505050565b60006117ff826117b4565b61180981856117bf565b93506118198185602086016117ca565b80840191505092915050565b600061183182846117f4565b915081905092915050565b600082825260208201905092915050565b7f4163746976697479206973206e6f74206f70656e000000000000000000000000600082015250565b600061188360148361183c565b915061188e8261184d565b602082019050919050565b600060208201905081810360008301526118b281611876565b9050919050565b7f43616c6c657220646f6573206e6f74206861766520746865207265717569726560008201527f6420726f6c650000000000000000000000000000000000000000000000000000602082015250565b600061191560268361183c565b9150611920826118b9565b604082019050919050565b6000602082019050818103600083015261194481611908565b9050919050565b7f436f6e6669726d4f726465720000000000000000000000000000000000000000600082015250565b6000611981600c836117bf565b915061198c8261194b565b600c82019050919050565b60006119a282611974565b9150819050919050565b7f526573746f636b52657175657374000000000000000000000000000000000000600082015250565b60006119e2600e836117bf565b91506119ed826119ac565b600e82019050919050565b6000611a03826119d5565b9150819050919050565b7f50757263686173654f7264657200000000000000000000000000000000000000600082015250565b6000611a43600d836117bf565b9150611a4e82611a0d565b600d82019050919050565b6000611a6482611a36565b9150819050919050565b7f436f6e6669726d526573746f636b000000000000000000000000000000000000600082015250565b6000611aa4600e836117bf565b9150611aaf82611a6e565b600e82019050919050565b6000611ac582611a97565b9150819050919050565b7f43616e63656c4f72646572000000000000000000000000000000000000000000600082015250565b6000611b05600b836117bf565b9150611b1082611acf565b600b82019050919050565b6000611b2682611af8565b9150819050919050565b7f4e6f742056616c69642053746174650000000000000000000000000000000000600082015250565b6000611b66600f8361183c565b9150611b7182611b30565b602082019050919050565b60006020820190508181036000830152611b9581611b59565b9050919050565b7f4e487b7100000000000000000000000000000000000000000000000000000000600052601160045260246000fd5b6000611bd6826112b5565b91507fffffffffffffffffffffffffffffffffffffffffffffffffffffffffffffffff8203611c0857611c07611b9c565b5b600182019050919050565b6000611c1e826112b5565b9150611c29836112b5565b9250828202611c37816112b5565b91508282048414831517611c4e57611c4d611b9c565b5b5092915050565b7f4e487b7100000000000000000000000000000000000000000000000000000000600052601260045260246000fd5b6000611c8f826112b5565b9150611c9a836112b5565b925082611caa57611ca9611c55565b5b828204905092915050565b6000611cc0826112b5565b9150611ccb836112b5565b9250828201905080821115611ce357611ce2611b9c565b5b9291505056fea26469706673582212202cf244f55117e23c0266256b0362df3cf5bba16a385a9a29d12eac2751809a4064736f6c634300081b0033",
  "linkReferences": {},
  "deployedLinkReferences": {}
}